:020000021000EC
:10FC0000112494B714BE892F8D7011F0892F0FD154
:10FC100085E08093810082E08093C00088E180933A
:10FC2000C10086E08093C20085E18093C4008EE02D
:10FC3000E8D0209A86E02CE33BEF91E030938500FA
:10FC40002093840096BBB09BFECF189AA895815054
:10FC5000A9F7CC24DD2423E0822EAA24A39491E1E9
:10FC6000992EC3D0813471F4C0D0182FD0D012385F
:10FC700011F482E005C0113811F486E001C083E080
:10FC8000ACD0A8C0823411F484E103C0853419F4E7
:10FC900085E0C5D09FC08535A1F4A7D0082F10E01E
:10FCA000A4D0E82EFF24FE2CEE24E02AF12A8F2D8A
:10FCB000881F8827881F8BBFEE0CFF1CA8D0670108
:10FCC00089C0863521F484E0AAD080E0D9CF84367B
:10FCD00009F052C08AD090E0182F002786D090E01B
:10FCE000082B192B82D0B82EE801E12CA1E0FA2EC6
:10FCF0007CD0F70181937F012197D1F788D0F5E47B
:10FD0000BF1689F4E601E12CF1E0FF2E08C0CE0118
:10FD10002196F70161917F0198D0015010400115A3
:10FD20001105A9F757C0F60187BEE89507B600FC94
:10FD3000FDCFB801A601A0E0B1E02C9130E0119612
:10FD40008C91119790E0982F8827822B932B1296F5
:10FD5000FA010C01A7BEE89511244E5F5F4F625077
:10FD6000704059F785E0F60187BFE89507B600FCBB
:10FD7000FDCF97BEE8952EC08437F1F436D090E0E1
:10FD8000D82FCC2732D090E0C82BD92B2ED0182FCB
:10FD90003ED0153449F48601C8010F5F1F4F4DD086
:10FDA0001CD02197C9F716C08601F80187918F01F1
:10FDB00014D02197D1F70EC0853739F428D08EE1C1
:10FDC0000CD087E90AD085E05BCF813511F488E05B
:10FDD00018D01DD080E101D044CF982F8091C00071
:10FDE00085FFFCCF9093C60008958091C00087FFE7
:10FDF000FCCF8091C00084FD01C0A8958091C60011
:10FE00000895E0E6F0E098E1908380830895EDDFC7
:10FE1000803219F088E0F5DFFFCF84E1DECF1F9359
:10FE2000182FE3DF1150E9F7F2DF1F910895282E14
:10FE300080E0E7DFE0E0FF270994F999FECF92BD6B
:10FE400081BDF89A992780B50895262FF999FECF9C
:10FE50001FBA92BD81BD20BD0FB6F894FA9AF99AE7
:06FE60000FBE019608959B
:02FFFE000206F9
:040000031000FC00ED
:00000001FF
